:020000040800F2
:10000000004000208D1F0008E11B0008E31B0008D2
:1000100000000000000000000000000000000000E0
:10002000000000000000000000000000E51B0008C8
:100030000000000000000000E71B0008E91B0008AA
:10004000DD1F0008DD1F0008DD1F0008DD1F0008A0
:10005000DD1F0008DD1F0008DD1F0008DD1F000890
:10006000DD1F0008DD1F0008DD1F0008DD1F000880
:10007000DD1F0008DD1F0008DD1F0008DD1F000870
:10008000DD1F0008DD1F0008DD1F0008DD1F000860
:10009000DD1F0008DD1F0008DD1F0008DD1F000850
:1000A000DD1F0008DD1F0008DD1F0008F11B000830
:1000B000DD1F00081D1F0008DD1F0008DD1F0008F0
:1000C00010B5064C2378002B07D1054B002B02D02E
:1000D000044800E000BF0123237010BD740000201D
:1000E0000000000038200008044B10B5002B03D09E
:1000F0000349044800E000BF10BDC04600000000F6
:1001000078000020382000080023C25C0133002A58
:10011000FBD1581E70470000002243088B4274D365
:1001200003098B425FD3030A8B4244D3030B8B42F8
:1001300028D3030C8B420DD3FF22090212BA030C01
:100140008B4202D31212090265D0030B8B4219D3E2
:1001500000E0090AC30B8B4201D3CB03C01A524102
:10016000830B8B4201D38B03C01A5241430B8B424A
:1001700001D34B03C01A5241030B8B4201D30B0333
:10018000C01A5241C30A8B4201D3CB02C01A52415A
:10019000830A8B4201D38B02C01A5241430A8B421D
:1001A00001D34B02C01A5241030A8B4201D30B0206
:1001B000C01A5241CDD2C3098B4201D3CB01C01A20
:1001C000524183098B4201D38B01C01A524143092A
:1001D0008B4201D34B01C01A524103098B4201D318
:1001E0000B01C01A5241C3088B4201D3CB00C01A85
:1001F000524183088B4201D38B00C01A52414308FD
:100200008B4201D34B00C01A5241411A00D2014621
:10021000524110467047FFE701B5002000F006F894
:1002200002BDC0460029F7D076E770477047C04648
:1002300010B5040000F062FDFA218900FFF76CFFA1
:1002400000F076F8002221000120404200F032F850
:10025000002010BD10B5064A136810210B4313602F
:100260000020FFF7E5FF01F039FC002010BDC0467B
:1002700000200240024A1368013313607047C046F1
:10028000A0000020014B18687047C046A000002065
:1002900030B583B00190FFF7F5FF0500019C631CAA
:1002A0005A1E9341E418FFF7EDFF401BA042FAD31A
:1002B00003B030BD70B5002814DB83089B00154ADD
:1002C00094466344C026B6009D5903242040C000D4
:1002D000FF2214008440A54389010A4082402A433A
:1002E0009A5170BDC0B20F230340083B9B089B008E
:1002F000094A94466344DD6903221040C000FF248C
:1003000022008240954389010C4084402C43DC61EB
:10031000E7E7C04600E100E000ED00E01F231840E1
:100320001E3B8340014A13607047C04600E100E075
:10033000431E0A4A012093420ED8094A53600948D5
:10034000036A1B021B0AC02109060B430362002338
:1003500093600733136000207047C046FFFFFF0023
:1003600010E000E000ED00E010B52123C35C022B9B
:1003700003D004238363012010BD026813680E219B
:100380008B43136001680A6801239A430A60C26BB9
:100390001900046CA14051602122835400221F33B4
:1003A000C254436B002B02D098470020E4E70020A2
:1003B000E2E70000F0B5DE4657464E464546E0B55A
:1003C00085B00A68002A00D1BBE0002501239846C9
:1003D0000F339A460D3B994680235B059B465C4B49
:1003E000C3185C1EA341043301933CE0EB089B005F
:1003F000C3181F6A07242C40A4000F22A240974371
:100400000A69A24014003C431C6236E08368234022
:100410009C46CB68BB406246134383604368B3434A
:100420001E004B681B0942461340AB4033434360F8
:1004300037E0002463E0444661E002245FE04C467C
:100440005DE0009A134365E0009A134369E0009A67
:1004500013436DE0009A1A433E4BDA6001350A6897
:100460001300EB406DD04646AE4032400092F5D0CE
:100470004B685446A343022BB8D003686F004C4628
:10048000BC40E44323409C464B684A461340BB4073
:100490006246134303604B6852469343013B012B72
:1004A000B4D9C36823408C68BC401C43C4604B680B
:1004B0005A461342D2D0284B9C69424614439C6151
:1004C0009B6913400393039BAB089B00234A94460C
:1004D00063449C684E462E40B6000F27B740BC438D
:1004E00027009024E405A042A3D01D4CA042A2D036
:1004F0001C4CA042A1D01C4CA042A0D0019CB440F6
:100500003C439C60134B1B68009AD4434A68D20357
:1005100097D423400F4E336073684A68920393D494
:1005200023400C4E7360B3684A68D2028FD42340D4
:10053000084EB360F3684A6892028BD423401A00D5
:100540008AE705B03CBC90469946A246AB46F0BD52
:1005500000F0FFB70004014000100240000001401D
:100560000004004800080048000C004800690840EA
:10057000411E8841C0B27047002A01D18162704794
:100580008161FCE74369594041617047F0B5CE464F
:10059000474680B583B004000368DB0741D5BD4BF7
:1005A0005A680C231340042B33D0BA4B5A680C23DF
:1005B0001340082B24D06368012B57D0002B5CD14B
:1005C000B44B1A68B4490A401A601A68B3490A4021
:1005D0001A606368002B68D0FFF754FE0700AD4E29
:1005E0008025AD0233682B421BD1FFF74BFEC01BA9
:1005F0006428F7D9032003B00CBC90469946F0BD9F
:10060000A44B5B68C02252021340802252029342E4
:10061000D1D1A04B1B689B0303D501206368002B3D
:10062000E9D023689B076AD59A4B5B680C221A4273
:1006300054D0984B5A680C231340082B45D0E368DC
:10064000002B7FD0934A136801210B431360FFF7FF
:1006500019FE07008F4E022533681D4269D1FFF74E
:1006600011FEC01B0228F7D90320C4E7894A11688C
:1006700080235B020B431360ABE7052B09D0854B4E
:100680001A6885490A401A601A6884490A401A6043
:100690009FE7804B19688022D2020A431A601968CA
:1006A000802252020A431A6093E7FFF7EBFD07002E
:1006B000784E8025AD0233682B42B2D0FFF7E2FDC1
:1006C000C01B6428F7D9032095E7724B5B68C022F2
:1006D00052021340802212029342B0D16D4B1B682C
:1006E0009B0704D50120E368012B00D083E769490B
:1006F0000A682369DB00F820824313430B602368F8
:100700001B0747D5E369002B30D0624A536A0121A9
:100710000B435362FFF7B6FD07005E4E0225736A76
:100720001D4237D1FFF7AEFDC01B0228F7D90320C9
:1007300061E758490A682369DB00F82082431343C4
:100740000B60DCE7534A136801218B431360FFF70A
:1007500099FD07004F4E022533681D42CFD0FFF7A9
:1007600091FDC01B0228F7D9032044E7494A536A88
:1007700001218B435362FFF785FD0700454E02259B
:10078000736A1D4206D0FFF77DFDC01B0228F7D912
:10079000032030E723685B0700D488E03D4BDB692A
:1007A00000229046DB000BD43A4AD16980204005F4
:1007B0000143D161D36903400193019B0123984612
:1007C000374B1B68DB0521D5A368012B34D0002BE8
:1007D00038D1304B1A6A01218A431A621A6A0331EE
:1007E0008A431A62A368002B42D0FFF74BFD814673
:1007F000284F02262B4D3B6A1E4255D1FFF742FD82
:100800004B46C01AA842F6D90320F4E6244A1168E0
:1008100080235B000B431360FFF734FD0500204F7E
:10082000802676003B683342CED1FFF72BFD401B7C
:100830006428F7D90320DEE6164A136A01210B4328
:100840001362CFE7052B09D0124B1A6A01218A43A4
:100850001A621A6A03318A431A62C3E70D4B1A6A95
:1008600004210A431A621A6A03390A431A62B9E771
:10087000FFF708FD8146074F02260A4D3B6A1E42DC
:1008800012D0FFF7FFFC4B46C01AA842F6D903204E
:10089000B1E6C04600100240FFFFFEFFFFFFFBFF76
:1008A00000700040881300004346012B1FD02368CE
:1008B000DB064FD56369012B1FD005333ED07C4B3F
:1008C0005A6B04210A435A635A6B03398A435A63A9
:1008D000FFF7D8FC0700764E0225736B1D4239D016
:1008E000FFF7D0FCC01B0228F7D9032083E6704A2B
:1008F000D36970490B40D361D9E76D4B5A6B042122
:100900000A435A635A6B03390A435A63FFF7BAFC26
:100910000700674E0225736B1D4206D1FFF7B2FC3C
:10092000C01B0228F7D9032065E661494A6BA36919
:10093000DB00F820824313434B630BE05C4A536BAC
:1009400004218B435363516BA369DB00F82081437F
:100950000B43536323689B0634D5554B5A680C23CD
:1009600013400C2B25D0524B5A680C231340082BF4
:1009700018D0236A002B47D04D4A516B80235B026D
:100980000B435363FFF77EFC0700494E80256D0241
:10099000736B2B4216D1FFF775FCC01B0228F7D9E9
:1009A000032028E6424B5B68C02252021340934268
:1009B000DFD13F4B5B6BDB0304D50120236A012BA6
:1009C00000D018E6636A0020002B00D113E6384AF5
:1009D00051680C220A40082A68D0022B29D0344AD8
:1009E000136835490B401360FFF74CFC0600304D8F
:1009F0008024A4042B68234256D0FFF743FC801BBD
:100A00000228F7D90320F6E5294A536B2B490B40FE
:100A10005363FFF737FC0700254E80256D02736B8B
:100A20002B42CFD0FFF72EFCC01B0228F7D90320A2
:100A3000E1E51F4A136820490B401360FFF722FCD1
:100A400007001B4E8025AD0433682B4206D0FFF70C
:100A500019FCC01B0228F7D90320CCE5144BDA6A35
:100A60000F218A43216B0A43DA625968E26AA06A5D
:100A70000243134801400A435A6019688022520415
:100A80000A431A60FFF7FEFB0600094D8024A40408
:100A90002B68234206D1FFF7F5FB801B0228F7D90C
:100AA0000320A8E50020A6E50020A4E50120A2E59A
:100AB00000100240FFFFFFEFFFFFFFFEFFFFFEFF02
:100AC000FF7FC2FF30B589B004AA1F4B180032C89F
:100AD00032C2110002680A606A46103313CB13C297
:100AE0001B681360194B5A680C231340082B04D061
:100AF0000C2B26D1164809B030BD910C0F2319409C
:100B000004A8445C1149C96A0B406946C95CC0230A
:100B10005B021A4080235B029A4208D0C0235B022A
:100B20009A4209D00B48FFF7F7FA6043E3E7094818
:100B3000FFF7F2FA6043DEE70548FFF7EDFA60439E
:100B4000D9E70448D7E7C04650200008001002400B
:100B5000006CDC0200127A00F8B5CE46474680B53C
:100B600005000C005F4B1A68012313408B420BD227
:100B70005C490B680122934323430B600B681A40C6
:100B80000120944200D0A8E02B689B0706D5564A66
:100B90005368F0218B43A9680B4353602B68DB0734
:100BA00071D56B68012B29D0022B2DD0032B31D0AE
:100BB0004D4A12680120920700D48EE04A494A68E3
:100BC0000320824313434B60FFF75CFB06006B6816
:100BD000012B25D0022B34D0032B43D0424B984617
:100BE0000C27424B994643465B681F424BD0FFF7A8
:100BF00049FB801B4845F6D903206EE03A4A12684B
:100C000001209203DAD468E0374A12680120920189
:100C1000D4D462E0344A526B0120D203CED45CE0DB
:100C2000314B98460C27314B994643465B683B4015
:100C3000042B28D0FFF726FB801B4845F5D903205D
:100C40004BE0294B98460C27284B994643465B6856
:100C50003B40082B17D0FFF715FB801B4845F5D903
:100C600003203AE0204B98460C27204B99464346F8
:100C70005B683B400C2B06D0FFF704FB801B48450C
:100C8000F5D9032029E0174B1A68012313409C4231
:100C90000AD214490B680122934323430B600B686B
:100CA0001A400120944218D12B685B0706D50E4AE2
:100CB00053680F490B40E9680B435360FFF702FF8D
:100CC000094B5B681B061B0F0A4AD35CD8400A4BD2
:100CD00018600020FFF7ACFA00200CBC9046994643
:100CE000F8BDC046002002400010024088130000FA
:100CF000FFF8FFFF7020000870000020014B18680B
:100D00007047C04670000020044B5B685B055B0FBA
:100D1000034AD35C034A1068D84070470010024071
:100D20008020000870000020F0B5CE46474680B510
:100D300083B004000368DB0336D54E4BDB69002526
:100D4000DB000AD44B4AD169802040050143D161C0
:100D5000D36903400193019B0135474B1B68DB05B9
:100D60005AD5444B1B6AC0229200134013D06168CD
:100D70000A4093420FD03F4B186A404A02401E6A15
:100D80008021490231431962196A3D4E314019628E
:100D90001A62C30757D4374A136A38490B4061684F
:100DA0000B431362012D60D02368DB0706D5314A5F
:100DB000136B03218B43A1680B43136323689B07C9
:100DC00006D52C4A136B2F490B40E1680B43136384
:100DD00023689B0606D5274A136B10218B43216994
:100DE0000B43136323689B0306D5224A136B8021B0
:100DF0008B43A1690B431363002023685B0506D571
:100E00001C4A136B40218B4361690B43136303B08E
:100E10000CBC90469946F0BD174A116880235B00D0
:100E20000B431360FFF72EFA8046134F802676009F
:100E30003B68334295D1FFF725FA4346C01A642830
:100E4000F6D90320E3E7FFF71DFA8146094F022692
:100E50000D4B98463B6A1E429DD1FFF713FA4B4655
:100E6000C01A4045F6D90320D1E7D36907490B40A2
:100E7000D36199E70010024000700040FFFCFFFFC3
:100E8000FFFFFEFFFFFFFCFF88130000FFFFFFEFE7
:100E90000268136806490B401360026893682331A7
:100EA000FF318B43936020226A23C2547047C046AF
:100EB000DFFEFFFF704710B5406A00235A228352BD
:100EC000083A8352FFF7F6FF10BD000070B504002A
:100ED00001680A6883680069034360690343E06945
:100EE00003437148024013430B60226853686F4903
:100EF0000B40E1680B43536021688A68A369206A4C
:100F000003436B48024013438B602568694B9D4245
:100F10001CD0694B9D422DD0684B9D4200D1B2E060
:100F2000674B9D4200D1AEE080231B02E2690120A5
:100F30009A420AD1012000230F22190091430A008E
:100F400021681B075B0F1343CB6070BD5D4B1A6BB1
:100F500003231340012B73D0002B30D0022B00D180
:100F60007FE0032B18D080231B02E2699A4242D013
:100F70000120EAE7534B1B6BC022920213408022F0
:100F8000520293423AD018D980229202934246D01C
:100F9000C02292029342E6D180231B02E2699A4268
:100FA0001ED061684808484B9C466044FFF7B4F87F
:100FB0000004000CE8600020C7E7002BD3D1802399
:100FC0001B02E2699A4263D1FFF79EFE400063680C
:100FD0005B08C0186168FFF79FF883B20020ABE799
:100FE00063685808394B9C4660446168FFF794F881
:100FF00083B20020A0E7012000239DE780231B028D
:10100000E2699A4221D1FFF75DFD400063685B0809
:10101000C0186168FFF780F883B200208CE7802356
:101020001B02E2699A4221D16368580880235B025F
:101030009C4660446168FFF76FF883B200207BE74D
:1010400080231B02E2699A42DDD0FFF73BFD616815
:101050004B081818FFF760F80004000CE860002047
:1010600073E780231B02E2699A42DDD06168480879
:1010700080231B029C466044FFF74EF80004000CDE
:10108000E860002061E780231B02E2699A429BD05E
:10109000FFF73AFE61684B081818FFF73DF80004A7
:1010A000000CE860002050E7F369FFEFFFCFFFFF7F
:1010B000FFF4FFFF003801400044004000480040BA
:1010C000004C00400010024000127A000024F4009E
:1010D000436ADB0706D5026853682C490B40816AD6
:1010E0000B435360436A9B0706D50268536828493F
:1010F0000B40C16A0B435360436A5B0706D5026825
:10110000536824490B40016B0B435360436A1B0730
:1011100006D50268536820490B40416B0B4353606E
:10112000436ADB0606D5026893681C490B40816B55
:101130000B439360436A9B0606D50268936818497F
:101140000B40C16B0B439360436A5B060BD502688F
:10115000536814490B40016C0B43536080235B03BD
:10116000026C9A420AD0436A1B0606D5026853688D
:101170000D490B40816C0B43536070470268536804
:101180000A490B40416C0B435360ECE7FFFFFDFF46
:10119000FFFFFEFFFFFFFBFFFF7FFFFFFFEFFFFFF4
:1011A000FFDFFFFFFFFFEFFFFFFFF7FFFFFF9FFFE7
:1011B000F0B5C64600B507000C0016009846069D1F
:1011C0003A68D36923401B1B59424B41B3421ED19D
:1011D0006B1CF6D0002D05D0FFF754F84346C01A1B
:1011E0008542EDD23A6813680B490B4013603A68A8
:1011F0009368A331FF318B43936020236922BB5452
:101200000132BB5400224833FA54032000E000208E
:1012100004BC9046F0BDC0465FFEFFFFF0B5C64679
:1012200000B584B004000F0016001D006923C35CE4
:101230000220202B03D004B004BC9046F0BD00294E
:101240005AD00138002AF6D080235B01A2689A4266
:1012500018D06823E35C0220012BECD00122682324
:10126000E2540023E36620326933E254FFF70AF8C0
:1012700003905023E6520233E652522680235B014C
:10128000984609E02369002BE3D1CB07E1D5D2E7EB
:101290003B78226813850137A35B9BB2002B19D0E2
:1012A000A35B013B9BB2A3530095039B00228021CB
:1012B0002000FFF77DFF002820D1A3684345E7D138
:1012C0002369002BE4D13B88DB05DB0D2268138505
:1012D0000237E1E70095039B002240212000FFF741
:1012E00067FF002801D00320A5E720226923E254EC
:1012F0000022013BE2549EE701209CE703209AE78D
:10130000F0B5D646474680B585B004000F001600FC
:101310001D006A23C35C0220202B04D005B00CBC46
:1013200090469A46F0BD002900D181E00138002A9C
:10133000F4D080235B01A2689A4221D06823E35C49
:101340000220012BEAD001226823E2540023E36645
:1013500021326A33E254FEF795FF03905823E65298
:101360000233E652A3688022520193420ED0002B32
:101370001BD12369002B14D1FF225C33E25218E009
:101380002369002BDAD1CB07D8D5C7E72369002B17
:1013900003D1294A5C33E2520BE0FF225C23E25284
:1013A00007E07F225C23E25203E080225205934251
:1013B00007D05C23E35A9A465A2680235B0198465D
:1013C00010E02369002B03D17F225C33E252F0E767
:1013D0003F225C23E252ECE723689B8C5246134089
:1013E0003B700137A35B9BB2002B19D0A35B013B81
:1013F0009BB2A3530095039B002220212000FFF7FE
:10140000D7FE002816D1A3684345E5D12369002BF8
:10141000E2D123689B8C524613403B800237E1E7C0
:1014200020226A33E2540022023BE254002075E796
:10143000012073E7032071E7FF01000030B583B09E
:1014400004000023C366FEF71DFF050023681A4A47
:1014500093420DD0194A93420AD020236922A35403
:101460000132A35400224833E254002003B030BDBF
:101470001B681B0711D423681B685B07EDD5104B55
:1014800000932B0000228021C9032000FFF790FE6B
:1014900003000320002BE9D1DFE7094B00932B0069
:1014A0000022802189032000FFF782FE0300032031
:1014B000002BDBD1DFE7C04600380140004400408C
:1014C000FFFFFF0110B5041E30D06923C35C002B61
:1014D00022D024226923E2542268136801218B431D
:1014E00013602000FFF7F2FC012814D0636A002B80
:1014F00018D1226853680E490B40536022689368E4
:101500002A218B4393602268136829390B431360A7
:101510002000FFF793FF10BD00226833C25400F093
:10152000F5FAD6E72000FFF7D3FDE2E70120F2E766
:10153000FFB7FFFF6923C25C673B212A01D0180077
:1015400070475033C35A9BB2002B11D080235B01EC
:1015500082689A4218D0C36C5A1CC2641B78026815
:1015600013855222835A013B9BB283520023E6E744
:101570000268136880218B43136002681368403946
:101580000B4313600023DAE70369002BE3D1C36C3C
:101590001B88DB05DB0D02681385C36C0233C36453
:1015A000DFE710B50268136840218B4313602022E7
:1015B0006923C25400F091FA002010BD10B56A23CF
:1015C000C35C222B07D00268936908210B43936107
:1015D0000223180010BD3A33C15A03689B8C9BB29A
:1015E00080225201846894421ED0426D541C44658E
:1015F0000B4013705A23C25A013A92B2C2520023CE
:10160000002AE6D1026813680C490B401360026897
:1016100093682331FF318B43936020226A23C254A5
:1016200000F05AFA0023D4E70269002ADDD10B400A
:10163000426D1380436D02334365DBE7DFFEFFFF3E
:1016400070B504000268D3691168180740D1980684
:1016500001D588060DD49568D80201D5680223D437
:101660001A0601D50A062BD45B0601D54B062BD4EE
:1016700070BD2000FFF7A2FFFAE75A074DD50028FA
:101680004BD043E02000FFF799FF59E02000FFF71F
:1016900011FCEDE72000FFF70DFCE9E72000FFF764
:1016A00009FC0023E366E3E780235B031362202346
:1016B0006922A3540132A354200000F065F8D7E753
:1016C0002000FFF737FFD3E72000FFF76AFFCFE7DF
:1016D00095680120284003D1902676003142BBD086
:1016E000DD0706D5CD0504D501251562E26E2A4336
:1016F000E2669A07C1D500280FD02268022515623C
:10170000E26E02352A43E2661D4206D022680425B5
:101710001562E26E023D2A43E2661A0709D58A067F
:1017200001D4002805D0226808201062E26E02432E
:10173000E266E26E002A9BD09B0601D58B06A1D4FF
:10174000E36E1B0703D423689B685B06A6D52000C5
:10175000FFF79EFB23689A6852069BD59A68402142
:101760008A439A60636E002B90D0064A5A63606E7B
:10177000FEF7FAFD002800D17AE7606E436B9847C8
:1017800076E7C046B70E0008704730B599B03422EE
:1017900000210BA800F048FC1022002107A800F04F
:1017A00043FC1C220021684600F03EFC02230B9300
:1017B00001250E950E330F930BA8FEF7E7FE0723C6
:1017C00007930024089409940A94002107A8FFF7BE
:1017D000C3F9009502946846FFF7A6FA19B030BD28
:1017E000F0B5DE4657464E464546E0B589B0FEF7B1
:1017F00031FDFFF7CAFF1422002103A800F014FCFA
:10180000A04B596980208002014359615A69024006
:101810000192019A5A698021C9020A435A615B699F
:101820000B400293029B002204219748FEF7A4FE7E
:10183000002210219448FEF79FFE80277F0000229F
:1018400039009020C005FEF797FE0423039301257D
:10185000049500240594069403A98B48FEF7AAFD7D
:101860001026039604950594069403A98648FEF76E
:10187000A1FD039704950594069403A99020C00543
:10188000FEF798FD039604950594069403A97E48F7
:10189000FEF790FD2023994603930494059403A931
:1018A0007948FEF787FD03960494059403A99020D8
:1018B000C005FEF77FFD754E754B3360E1235B027B
:1018C0009B467360B460F46034610C239A46736184
:1018D000B461F461346274623000FFF7F3FD6D4867
:1018E0006D4B03605B4643608460C4600461534693
:1018F00043618461C46104624462FFF7E3FD3268BE
:10190000136849460B431360012239009020C0053B
:10191000FEF732FE012204215B48FEF72DFE5F48F0
:10192000FEF7B6FC002239009020C005FEF724FE29
:10193000002204215448FEF71FFE5948FEF7A8FC78
:10194000584C2000FEF7E0FB82B2642321003000F7
:10195000FFF764FCFA20C000FEF79AFC524E3700F5
:10196000B046524C1AE0012210214748FEF704FE0F
:101970000123424613702378002B20D04C4B1B6868
:10198000012B28D04B4B1B78002B4AD14A4B1B789C
:10199000002B56D1494B1B78002B62D120213A48AD
:1019A000FEF7E4FD0128DED03378002BE3D00022DF
:1019B00010213548FEF7E0FD00233B70DBE71021E6
:1019C0009020C005FEF7D2FD0128DBD13C4B1B68FF
:1019D000002BD7D0D2E72C4D012204212800FEF79E
:1019E000CBFDC820FEF754FC002204212800FEF79E
:1019F000C3FDC820FEF74CFC00232C4A1370314A6B
:101A000013702B4A13606420FEF742FC2E4D280011
:101A1000FEF77AFB82B2642329001C48FFF7FEFB25
:101A2000B0E72A4D2800FEF76FFB82B2642329003D
:101A30001648FFF7F3FB00231E4A1370214A137068
:101A4000A4E7234D2800FEF75FFB82B26423290040
:101A50000E48FFF7E3FB0023174A1370194A13706F
:101A600098E71C4D2800FEF74FFB82B26423290043
:101A70000648FFF7D3FB0023104A1370114A137076
:101A80008CE7C0460010024000040048A40000207B
:101A90000038014014010020004C0040DC0500002B
:101AA000B80B000000000020940000205402002029
:101AB000080000204D0200205702002052020020A2
:101AC0009000002055020020480000205400002013
:101AD000600000200C0000207047704782B00A4B65
:101AE000996901221143996199690A400092009A0B
:101AF000DA69802149050A43DA61DB690B40019309
:101B0000019B02B07047C0460010024010B58AB079
:101B100004001422002105A800F086FA23682D4A4B
:101B2000934204D02C4A93422BD00AB010BD2B4BC9
:101B300099698020C001014399619A69024001922C
:101B4000019A5A69802189020A435A615B690B40F4
:101B50000293029BC023DB0005930223069301330B
:101B60000893023B099305A99020C005FEF722FCCB
:101B7000002200211B20FEF79DFB1B20FEF7CEFB61
:101B8000D3E7164BD969802000030143D961DA6994
:101B900002400392039A5A69802189020A435A61DA
:101BA0005B690B400493049B032305930222069276
:101BB00008930133099305A99020C005FEF7FAFBAD
:101BC000002200211D20FEF775FB1D20FEF7A6FB5D
:101BD000ABE7C04600380140004C00400010024016
:101BE0007047FEE77047704710B5FEF743FB10BD26
:101BF00070B5B94CB94D6423012221002800FFF7CC
:101C00007FFB2800FFF71CFDB54A1378591C1170A3
:101C10002278B449CA54B4490B6801330B600A2ACC
:101C200000D070BDB14A136801331360062B2AD06F
:101C3000042B3ED0AD4B1B68022B3ED1AC4B1B7826
:101C4000022B00D1E6E0AA4B1B78032BE9D1A54B70
:101C50001B7C4F2B00D10DE1A64C04212000FEF788
:101C600091FCC820FEF714FB04212000FEF78AFC3B
:101C7000C820FEF70DFB04212000FEF783FCC820DE
:101C8000FEF706FB19E09A4B1B78002B15D1C822F2
:101C90000021944800F0C8F90122974B1A700023E4
:101CA0008F490B7092490A70904A13608A4A1370E8
:101CB00003E08F4B1B78012B23D08C4B1B68052B2B
:101CC000AFD18B4B1B78042BABD1864B1B78412BB0
:101CD00000D1E7E0874C04212000FEF753FCC82028
:101CE000FEF7D6FA04212000FEF74CFCC820FEF7D0
:101CF000CFFA04212000FEF745FCC820FEF7C8FA01
:101D00008FE7784BDB7B1A00313A012A6FD9392BE8
:101D1000D3D1784D012204212800FEF72DFCC824E0
:101D200064002000FEF7B4FA002204212800FEF728
:101D300023FC2000FEF7ACFA012204212800FEF764
:101D40001BFC2000FEF7A4FA002204212800FEF765
:101D500013FC2000FEF79CFA012204212800FEF764
:101D60000BFC2000FEF794FA002204212800FEF765
:101D700003FC2000FEF78CFA012204212800FEF764
:101D8000FBFB2000FEF784FA002204212800FEF766
:101D9000F3FB2000FEF77CFA80256D009024E4051B
:101DA000012229002000FEF7E7FB5448FEF770FAF5
:101DB000002229002000FEF7DFFB5148FEF768FAF9
:101DC000504C2000FEF7A0F982B264232100434862
:101DD000FFF724FAFA20C000FEF75AFA0022444B1B
:101DE0001A70424B1B68022B00D066E72BE7C82213
:101DF00000213C4800F018F90122434B1A700023DF
:101E0000374A137002213A4A1170384A1360324A35
:101E1000137052E7334B1B7B4F2B14D0354C0421EE
:101E20002000FEF7AFFBC820FEF732FA04212000A5
:101E3000FEF7A8FBC820FEF72BFA2C4B1B68022BE1
:101E400000D100E739E7274B5B7B4B2BE6D1C8225B
:101E50000021244800F0E8F801222C4B1A700023DE
:101E60001F4A13700321224A1170204A13601A4A34
:101E70001370D6E61B4B5B7C4B2B00D0ECE6C822E4
:101E80000021184800F0D0F80122214B1A700023DD
:101E9000134A13700421164A1170144A13600E4A33
:101EA0001370BEE60F4B5B78542B00D012E7C822AC
:101EB00000210C4800F0B8F80023094A13700122F1
:101EC0000B490A7013490A6013490A60074A1360F4
:101ED000014A1370A5E6C04650020020A40000206D
:101EE0005302002084010020980000209C00002064
:101EF0004C0200200004004854020020DC050000D1
:101F0000B80B0000000000204D0200205702002006
:101F100052020020080000209000002010B5024866
:101F2000FFF78EFB10BDC04614010020114B1A684C
:101F300001210A431A605A680F4802405A601A6821
:101F40000E4802401A601A680D4802401A605A682A
:101F50000C4802405A60DA6A0F208243DA621A6B38
:101F6000094802401A635A6B8A435A6300229A60F6
:101F70007047C046001002400CB8FF08FFFFF6FE95
:101F8000FFFFFBFFFFFFC0FF2CFEFCFF0D48854657
:101F90000D480E490E4A002302E0D458C4500433C1
:101FA000C4188C42F9D30B4A0B4C002301E0136098
:101FB0000432A242FBD3FFF7B9FF00F011F8FFF79C
:101FC0000FFCFEE70040002000000020740000200D
:101FD000902000087400002058020020FEE7000056
:101FE00070B500260C4D0D4C641BA410A64209D1FF
:101FF000002600F021F80A4D0A4C641BA410A642EA
:1020000005D170BDB300EB5898470136EEE7B30039
:10201000EB5898470136F2E788200008882000082E
:10202000882000088C20000803008218934200D109
:10203000704719700133F9E7F8B5C046F8BC08BC21
:102040009E467047F8B5C046F8BC08BC9E4670472F
:1020500002030405060708090A0B0C0D0E0F1010E9
:102060000102030405060708090A0B0C0D0E0F10E8
:102070000000000000000000010203040607080938
:0820800000000000010203044E
:04208800E900000863
:04208C00C100000887
:1020900041540D0A000000000100000041542B4390
:1020A0004D47533D222B39303530373434373137B3
:1020B0003238220D0A203E4B41474153207465734C
:1020C00074206261736C616E676963206D65736112
:1020D0006A69201A0000000041542B4353510D0A35
:1020E0000000000041542B434D47463D310D0A008E
:1020F00041542B435343533D2247534D220D0A0075
:0421000000127A004F
:0400000508001F8D43
:00000001FF
